{
  "contractName": "badmintonHub",
  "abi": [
    {
      "inputs": [],
      "stateMutability": "payable",
      "type": "constructor",
      "payable": true
    },
    {
      "inputs": [
        {
          "internalType": "uint256",
          "name": "",
          "type": "uint256"
        }
      ],
      "name": "Allracquets",
      "outputs": [
        {
          "internalType": "address",
          "name": "",
          "type": "address"
        }
      ],
      "stateMutability": "view",
      "type": "function",
      "constant": true
    },
    {
      "inputs": [],
      "name": "Available_Racquets",
      "outputs": [
        {
          "internalType": "uint256",
          "name": "",
          "type": "uint256"
        }
      ],
      "stateMutability": "view",
      "type": "function",
      "constant": true
    },
    {
      "inputs": [
        {
          "internalType": "address",
          "name": "",
          "type": "address"
        }
      ],
      "name": "balances",
      "outputs": [
        {
          "internalType": "uint256",
          "name": "",
          "type": "uint256"
        }
      ],
      "stateMutability": "view",
      "type": "function",
      "constant": true
    },
    {
      "inputs": [],
      "name": "myBalance",
      "outputs": [
        {
          "internalType": "uint256",
          "name": "",
          "type": "uint256"
        }
      ],
      "stateMutability": "view",
      "type": "function",
      "constant": true
    },
    {
      "inputs": [
        {
          "internalType": "address",
          "name": "",
          "type": "address"
        }
      ],
      "name": "racquets",
      "outputs": [
        {
          "internalType": "uint256",
          "name": "id",
          "type": "uint256"
        },
        {
          "internalType": "uint256",
          "name": "price",
          "type": "uint256"
        },
        {
          "internalType": "uint256",
          "name": "age",
          "type": "uint256"
        },
        {
          "internalType": "uint256",
          "name": "exchanges",
          "type": "uint256"
        },
        {
          "internalType": "enum badmintonHub.states",
          "name": "status",
          "type": "uint8"
        },
        {
          "internalType": "address",
          "name": "seller",
          "type": "address"
        },
        {
          "internalType": "address",
          "name": "buyer",
          "type": "address"
        }
      ],
      "stateMutability": "view",
      "type": "function",
      "constant": true
    },
    {
      "inputs": [
        {
          "internalType": "address",
          "name": "adr",
          "type": "address"
        }
      ],
      "name": "getbal",
      "outputs": [
        {
          "internalType": "uint256",
          "name": "",
          "type": "uint256"
        }
      ],
      "stateMutability": "view",
      "type": "function",
      "constant": true
    },
    {
      "inputs": [],
      "name": "register",
      "outputs": [],
      "stateMutability": "payable",
      "type": "function",
      "payable": true
    },
    {
      "inputs": [
        {
          "internalType": "address",
          "name": "id",
          "type": "address"
        },
        {
          "internalType": "uint256",
          "name": "price",
          "type": "uint256"
        },
        {
          "internalType": "uint256",
          "name": "age",
          "type": "uint256"
        }
      ],
      "name": "sellRequest",
      "outputs": [],
      "stateMutability": "nonpayable",
      "type": "function"
    },
    {
      "inputs": [
        {
          "internalType": "address",
          "name": "id",
          "type": "address"
        }
      ],
      "name": "buyRequest",
      "outputs": [],
      "stateMutability": "payable",
      "type": "function",
      "payable": true
    },
    {
      "inputs": [],
      "name": "get_LowCostRacquet",
      "outputs": [
        {
          "internalType": "address",
          "name": "",
          "type": "address"
        }
      ],
      "stateMutability": "view",
      "type": "function",
      "constant": true
    },
    {
      "inputs": [],
      "name": "get_LowAgeRacquet",
      "outputs": [
        {
          "internalType": "address",
          "name": "",
          "type": "address"
        }
      ],
      "stateMutability": "view",
      "type": "function",
      "constant": true
    }
  ],
  "bytecode": "0x60806040526000600181905550600060038190555047600760003373ffffffffffffffffffffffffffffffffffffffff1673ffffffffffffffffffffffffffffffffffffffff168152602001908152602001600020819055506117c6806100676000396000f3fe60806040526004361061009c5760003560e01c80635cd7b9f8116100645780635cd7b9f81461018d5780635d1820bf146101a957806373b298e2146101ec578063940b167214610215578063c9116b6914610240578063f100c0911461026b5761009c565b8063190dd277146100a15780631aa3a008146100de57806327e235e3146100e8578063372a894a146101255780634ac285f214610150575b600080fd5b3480156100ad57600080fd5b506100c860048036038101906100c3919061120e565b610296565b6040516100d591906113cc565b60405180910390f35b6100e66102df565b005b3480156100f457600080fd5b5061010f600480360381019061010a919061120e565b610387565b60405161011c91906113cc565b60405180910390f35b34801561013157600080fd5b5061013a61039f565b6040516101479190611351565b60405180910390f35b34801561015c57600080fd5b506101776004803603810190610172919061128e565b6105e8565b6040516101849190611351565b60405180910390f35b6101a760048036038101906101a2919061120e565b610627565b005b3480156101b557600080fd5b506101d060048036038101906101cb919061120e565b61099d565b6040516101e397969594939291906113e7565b60405180910390f35b3480156101f857600080fd5b50610213600480360381019061020e919061123b565b610a2c565b005b34801561022157600080fd5b5061022a610f8f565b6040516102379190611351565b60405180910390f35b34801561024c57600080fd5b506102556111d8565b60405161026291906113cc565b60405180910390f35b34801561027757600080fd5b506102806111de565b60405161028d91906113cc565b60405180910390f35b6000600760008373ffffffffffffffffffffffffffffffffffffffff1673ffffffffffffffffffffffffffffffffffffffff168152602001908152602001600020549050919050565b60003390506001600560008373ffffffffffffffffffffffffffffffffffffffff1673ffffffffffffffffffffffffffffffffffffffff168152602001908152602001600020819055503373ffffffffffffffffffffffffffffffffffffffff1631600760003373ffffffffffffffffffffffffffffffffffffffff1673ffffffffffffffffffffffffffffffffffffffff1681526020019081526020016000208190555050565b60076020528060005260406000206000915090505481565b6000806000905060006402540be400905060005b6004805490508110156105df576001808111156103d3576103d2611624565b5b60066000600484815481106103eb576103ea611653565b5b9060005260206000200160009054906101000a900473ffffffffffffffffffffffffffffffffffffffff1673ffffffffffffffffffffffffffffffffffffffff1673ffffffffffffffffffffffffffffffffffffffff16815260200190815260200160002060040160009054906101000a900460ff16600181111561047357610472611624565b5b141561047e576105cc565b81600660006004848154811061049757610496611653565b5b9060005260206000200160009054906101000a900473ffffffffffffffffffffffffffffffffffffffff1673ffffffffffffffffffffffffffffffffffffffff1673ffffffffffffffffffffffffffffffffffffffff1681526020019081526020016000206002015410156105cb57600660006004838154811061051e5761051d611653565b5b9060005260206000200160009054906101000a900473ffffffffffffffffffffffffffffffffffffffff1673ffffffffffffffffffffffffffffffffffffffff1673ffffffffffffffffffffffffffffffffffffffff1681526020019081526020016000206002015491506004818154811061059d5761059c611653565b5b9060005260206000200160009054906101000a900473ffffffffffffffffffffffffffffffffffffffff1692505b5b80806105d7906115ac565b9150506103b3565b50819250505090565b600481815481106105f857600080fd5b906000526020600020016000915054906101000a900473ffffffffffffffffffffffffffffffffffffffff1681565b6001600560003373ffffffffffffffffffffffffffffffffffffffff1673ffffffffffffffffffffffffffffffffffffffff168152602001908152602001600020541461067357600080fd5b6000600660008373ffffffffffffffffffffffffffffffffffffffff1673ffffffffffffffffffffffffffffffffffffffff16815260200190815260200160002060040160019054906101000a900473ffffffffffffffffffffffffffffffffffffffff169050600081905060003390506000600660008673ffffffffffffffffffffffffffffffffffffffff1673ffffffffffffffffffffffffffffffffffffffff1681526020019081526020016000206001015490506000670de0b6b3a76400008261074191906114bd565b90508373ffffffffffffffffffffffffffffffffffffffff166108fc829081150290604051600060405180830381858888f19350505050158015610789573d6000803e3d6000fd5b5080600760008573ffffffffffffffffffffffffffffffffffffffff1673ffffffffffffffffffffffffffffffffffffffff16815260200190815260200160002060008282546107d99190611517565b9250508190555080600760008673ffffffffffffffffffffffffffffffffffffffff1673ffffffffffffffffffffffffffffffffffffffff168152602001908152602001600020600082825461082f9190611517565b9250508190555060018060008282546108489190611517565b925050819055506001600660008873ffffffffffffffffffffffffffffffffffffffff1673ffffffffffffffffffffffffffffffffffffffff16815260200190815260200160002060040160006101000a81548160ff021916908360018111156108b5576108b4611624565b5b02179055506001600660008873ffffffffffffffffffffffffffffffffffffffff1673ffffffffffffffffffffffffffffffffffffffff168152602001908152602001600020600301600082825461090d9190611467565b9250508190555082600660008873ffffffffffffffffffffffffffffffffffffffff1673ffffffffffffffffffffffffffffffffffffffff16815260200190815260200160002060050160006101000a81548173ffffffffffffffffffffffffffffffffffffffff021916908373ffffffffffffffffffffffffffffffffffffffff160217905550505050505050565b60066020528060005260406000206000915090508060000154908060010154908060020154908060030154908060040160009054906101000a900460ff16908060040160019054906101000a900473ffffffffffffffffffffffffffffffffffffffff16908060050160009054906101000a900473ffffffffffffffffffffffffffffffffffffffff16905087565b6001600560003373ffffffffffffffffffffffffffffffffffffffff1673ffffffffffffffffffffffffffffffffffffffff1681526020019081526020016000205414610a7857600080fd5b6000805b600480549050811015610d215760048181548110610a9d57610a9c611653565b5b9060005260206000200160009054906101000a900473ffffffffffffffffffffffffffffffffffffffff1673ffffffffffffffffffffffffffffffffffffffff168573ffffffffffffffffffffffffffffffffffffffff161415610d0e5760019150600180811115610b1257610b11611624565b5b600660008773ffffffffffffffffffffffffffffffffffffffff1673ffffffffffffffffffffffffffffffffffffffff16815260200190815260200160002060040160009054906101000a900460ff166001811115610b7457610b73611624565b5b14610bb4576040517f08c379a0000000000000000000000000000000000000000000000000000000008152600401610bab906113ac565b60405180910390fd5b3373ffffffffffffffffffffffffffffffffffffffff16600660008773ffffffffffffffffffffffffffffffffffffffff1673ffffffffffffffffffffffffffffffffffffffff16815260200190815260200160002060050160009054906101000a900473ffffffffffffffffffffffffffffffffffffffff1673ffffffffffffffffffffffffffffffffffffffff1614610c84576040517f08c379a0000000000000000000000000000000000000000000000000000000008152600401610c7b9061136c565b60405180910390fd5b82600660008773ffffffffffffffffffffffffffffffffffffffff1673ffffffffffffffffffffffffffffffffffffffff168152602001908152602001600020600201541115610d09576040517f08c379a0000000000000000000000000000000000000000000000000000000008152600401610d009061138c565b60405180910390fd5b610d21565b8080610d19906115ac565b915050610a7c565b50600015158115151415610e0f57600354600660008673ffffffffffffffffffffffffffffffffffffffff1673ffffffffffffffffffffffffffffffffffffffff16815260200190815260200160002060000181905550600160036000828254610d8b9190611467565b925050819055506004849080600181540180825580915050600190039060005260206000200160009091909190916101000a81548173ffffffffffffffffffffffffffffffffffffffff021916908373ffffffffffffffffffffffffffffffffffffffff1602179055506001806000828254610e079190611467565b925050819055505b82600660008673ffffffffffffffffffffffffffffffffffffffff1673ffffffffffffffffffffffffffffffffffffffff1681526020019081526020016000206001018190555081600660008673ffffffffffffffffffffffffffffffffffffffff1673ffffffffffffffffffffffffffffffffffffffff168152602001908152602001600020600201819055506000600660008673ffffffffffffffffffffffffffffffffffffffff1673ffffffffffffffffffffffffffffffffffffffff16815260200190815260200160002060040160006101000a81548160ff02191690836001811115610f0357610f02611624565b5b021790555033600660008673ffffffffffffffffffffffffffffffffffffffff1673ffffffffffffffffffffffffffffffffffffffff16815260200190815260200160002060040160016101000a81548173ffffffffffffffffffffffffffffffffffffffff021916908373ffffffffffffffffffffffffffffffffffffffff16021790555050505050565b6000806000905060006402540be400905060005b6004805490508110156111cf57600180811115610fc357610fc2611624565b5b6006600060048481548110610fdb57610fda611653565b5b9060005260206000200160009054906101000a900473ffffffffffffffffffffffffffffffffffffffff1673ffffffffffffffffffffffffffffffffffffffff1673ffffffffffffffffffffffffffffffffffffffff16815260200190815260200160002060040160009054906101000a900460ff16600181111561106357611062611624565b5b141561106e576111bc565b81600660006004848154811061108757611086611653565b5b9060005260206000200160009054906101000a900473ffffffffffffffffffffffffffffffffffffffff1673ffffffffffffffffffffffffffffffffffffffff1673ffffffffffffffffffffffffffffffffffffffff1681526020019081526020016000206001015410156111bb57600660006004838154811061110e5761110d611653565b5b9060005260206000200160009054906101000a900473ffffffffffffffffffffffffffffffffffffffff1673ffffffffffffffffffffffffffffffffffffffff1673ffffffffffffffffffffffffffffffffffffffff1681526020019081526020016000206001015491506004818154811061118d5761118c611653565b5b9060005260206000200160009054906101000a900473ffffffffffffffffffffffffffffffffffffffff1692505b5b80806111c7906115ac565b915050610fa3565b50819250505090565b60025481565b60015481565b6000813590506111f381611762565b92915050565b60008135905061120881611779565b92915050565b60006020828403121561122457611223611682565b5b6000611232848285016111e4565b91505092915050565b60008060006060848603121561125457611253611682565b5b6000611262868287016111e4565b9350506020611273868287016111f9565b9250506040611284868287016111f9565b9150509250925092565b6000602082840312156112a4576112a3611682565b5b60006112b2848285016111f9565b91505092915050565b6112c48161154b565b82525050565b6112d38161159a565b82525050565b60006112e6602983611456565b91506112f182611687565b604082019050919050565b6000611309602e83611456565b9150611314826116d6565b604082019050919050565b600061132c601b83611456565b915061133782611725565b602082019050919050565b61134b81611590565b82525050565b600060208201905061136660008301846112bb565b92915050565b60006020820190508181036000830152611385816112d9565b9050919050565b600060208201905081810360008301526113a5816112fc565b9050919050565b600060208201905081810360008301526113c58161131f565b9050919050565b60006020820190506113e16000830184611342565b92915050565b600060e0820190506113fc600083018a611342565b6114096020830189611342565b6114166040830188611342565b6114236060830187611342565b61143060808301866112ca565b61143d60a08301856112bb565b61144a60c08301846112bb565b98975050505050505050565b600082825260208201905092915050565b600061147282611590565b915061147d83611590565b9250827fffffffffffffffffffffffffffffffffffffffffffffffffffffffffffffffff038211156114b2576114b16115f5565b5b828201905092915050565b60006114c882611590565b91506114d383611590565b9250817fffffffffffffffffffffffffffffffffffffffffffffffffffffffffffffffff048311821515161561150c5761150b6115f5565b5b828202905092915050565b600061152282611590565b915061152d83611590565b9250828210156115405761153f6115f5565b5b828203905092915050565b600061155682611570565b9050919050565b600081905061156b8261174e565b919050565b600073ffffffffffffffffffffffffffffffffffffffff82169050919050565b6000819050919050565b60006115a58261155d565b9050919050565b60006115b782611590565b91507fffffffffffffffffffffffffffffffffffffffffffffffffffffffffffffffff8214156115ea576115e96115f5565b5b600182019050919050565b7f4e487b7100000000000000000000000000000000000000000000000000000000600052601160045260246000fd5b7f4e487b7100000000000000000000000000000000000000000000000000000000600052602160045260246000fd5b7f4e487b7100000000000000000000000000000000000000000000000000000000600052603260045260246000fd5b600080fd5b7f4f6e6c792070726f6475637420686f6c6465722063616e2073656c6c2074686560008201527f2070726f647563742e0000000000000000000000000000000000000000000000602082015250565b7f50726f64756374206167652063616e6e6f74206265206c6f776572207468616e60008201527f2070726576696f7573206167652e000000000000000000000000000000000000602082015250565b7f50726f6475637420697320616c7265616479206f6e2053616c652e0000000000600082015250565b6002811061175f5761175e611624565b5b50565b61176b8161154b565b811461177657600080fd5b50565b61178281611590565b811461178d57600080fd5b5056fea2646970667358221220283acc0552d40462931e8c4a2b662dcbfd207b7ea8646df58339b90cb8b26b4564736f6c63430008070033",
  "immutableReferences": {},
  "source": "//SPDX-License-Identifier: UNLICENSED\n\npragma solidity ^0.8.7;\n// imagine a big integer counter that the whole world could share \n\n\ncontract badmintonHub {\n\n    address chairperson;\n    uint public Available_Racquets;\n    uint public myBalance;\n    uint counter;\n\n    enum states {OnSale, Sold} // 0: Available for Sale, 1: Sold\n\n    struct racquet {\n        uint id;\n        uint price;\n        uint age;\n        uint exchanges;\n\n        states status; // 0: Available for Sale, 1: Sold\n        address seller;\n        address buyer;   \n    }\n\n    address[] public Allracquets;  \n    mapping (address=>uint) membership;\n    mapping (address=>racquet) public racquets;\n    mapping (address=>uint) public balances;\n\n\n    function getbal(address adr) public view returns(uint){\n\n        return balances[adr];\n\n    }\n\n    // modifiers or rules\n    modifier onlyChairperson{ \n        require(msg.sender == chairperson);\n        _;\n    }\n    modifier onlyMember{ \n        require(membership[msg.sender] == 1);\n        _;\n    }\n\n    constructor () payable{\n        Available_Racquets = 0;\n        counter = 0;\n        balances[msg.sender] = address(this).balance;\n        // myBalance = address(this).balance;\n    }\n\n    function register ( ) public payable { \n        address memberA = msg.sender;\n        membership[memberA] = 1;\n        // balances[memberA] = msg.value;\n        // myBalance = address(this).balance;\n        balances[msg.sender] = address(msg.sender).balance;\n    }\n\n\n    function sellRequest (address id, uint price, uint age) onlyMember public {\n\n        bool exists = false;\n        for (uint i = 0; i < Allracquets.length; i++) {\n            if (id == Allracquets[i]) {\n                //ID already exists.\n                exists = true;\n\n                // SELL_rule-1: Only Sold product can be put on resale.\n                require (racquets[id].status == states.Sold, \"Product is already on Sale.\");\n                \n                // SELL_rule-2: Only previous buyer can sell the product.\n                require (racquets[id].buyer == msg.sender, \"Only product holder can sell the product.\");\n\n                // SELL_rule-3: Age of product cannot be lower than previous age.\n                require (racquets[id].age <= age, \"Product age cannot be lower than previous age.\");\n                break;\n            }\n        }\n\n        // Create New racquet if doesn't exist\n        if (exists == false) {\n            racquets[id].id = counter;\n            counter += 1;\n            Allracquets.push(id);\n            Available_Racquets += 1;\n        }\n\n        // Update racquet information\n        racquets[id].price = price;\n        racquets[id].age = age;\n        racquets[id].status = states.OnSale;//0: On Sale\n        racquets[id].seller = msg.sender;\n    } \n\n\n    function buyRequest (address id) onlyMember payable external { \n\n        address seller = racquets[id].seller;\n        address payable wallet = payable(seller);\n\n        // BUY_rule-1: Seller must be a member\n        // require (membership[wallet] == 1, \"Seller not a member.\");\n\n        // BUY_rule-2: Only On Sale product can be bought.\n        //require (racquets[id].status == states.OnSale, \"Product is not on Sale.\");\n        \n        address buyer = msg.sender;\n        uint amount = racquets[id].price;\n        uint newamount = amount * 1000000000000000000;\n\n        // Transfer Amount from buyer to Seller\n        wallet.transfer(newamount);\n        balances[buyer] -= newamount;\n        balances[wallet] -= newamount;\n\n        Available_Racquets -= 1;\n        racquets[id].status = states.Sold;//1: Sold\n        racquets[id].exchanges += 1;\n        racquets[id].buyer = buyer;\n    }\n\n    function get_LowCostRacquet() view public returns (address) {\n        address minPrice_racquet = address(0);\n        uint minPrice = 10000000000;\n\n        for (uint i = 0; i < Allracquets.length; i++) {\n            if (racquets[Allracquets[i]].status == states.Sold) {\n                continue;\n            }\n            if (racquets[Allracquets[i]].price < minPrice) {\n                minPrice = racquets[Allracquets[i]].price;\n                minPrice_racquet = Allracquets[i];\n            }\n        }\n        return minPrice_racquet;\n    }\n\n    function get_LowAgeRacquet() view public returns (address) {\n        address minAge_racquet = address(0);\n        uint minAge = 10000000000;\n\n        for (uint i = 0; i < Allracquets.length; i++) {\n            if (racquets[Allracquets[i]].status == states.Sold) {\n                continue;\n            }\n            if (racquets[Allracquets[i]].age < minAge) {\n                minAge = racquets[Allracquets[i]].age;\n                minAge_racquet = Allracquets[i];\n            }\n        }\n        return minAge_racquet;\n    }\n}",
  "sourcePath": "/Users/srinivas/Documents/Master_USA/Spring_2022/Block Chain/Project/BadmintonHub-Dapp/baddy-contract/contracts/BadmintonHub.sol",
  "compiler": {
    "name": "solc",
    "version": "0.8.7+commit.e28d00a7.Emscripten.clang"
  },
  "schemaVersion": "3.4.6",
  "updatedAt": "2022-04-19T18:44:08.478Z",
  "networkType": "ethereum",
  "devdoc": {
    "kind": "dev",
    "methods": {},
    "version": 1
  },
  "userdoc": {
    "kind": "user",
    "methods": {},
    "version": 1
  }
}